{"contracts/ERC.sol":{"ERC":{"abi":[{"inputs":[{"internalType":"string","name":"name_","type":"string"},{"internalType":"string","name":"symbol_","type":"string"},{"internalType":"uint256","name":"initialSuply","type":"uint256"},{"internalType":"address","name":"shop","type":"address"}],"stateMutability":"nonpayable","type":"constructor"},{"anonymous":false,"inputs":[{"indexed":true,"internalType":"address","name":"owner","type":"address"},{"indexed":true,"internalType":"address","name":"to","type":"address"},{"indexed":false,"internalType":"uint256","name":"amount","type":"uint256"}],"name":"Approve","type":"event"},{"anonymous":false,"inputs":[{"indexed":true,"internalType":"address","name":"from","type":"address"},{"indexed":true,"internalType":"address","name":"to","type":"address"},{"indexed":false,"internalType":"uint256","name":"amount","type":"uint256"}],"name":"Transfer","type":"event"},{"inputs":[{"internalType":"address","name":"_owner","type":"address"},{"internalType":"address","name":"spender","type":"address"}],"name":"allouns","outputs":[{"internalType":"uint256","name":"","type":"uint256"}],"stateMutability":"view","type":"function"},{"inputs":[{"internalType":"address","name":"spender","type":"address"},{"internalType":"uint256","name":"amount","type":"uint256"}],"name":"approve","outputs":[],"stateMutability":"nonpayable","type":"function"},{"inputs":[{"internalType":"address","name":"acount","type":"address"}],"name":"balanceOf","outputs":[{"internalType":"uint256","name":"","type":"uint256"}],"stateMutability":"view","type":"function"},{"inputs":[{"internalType":"address","name":"_from","type":"address"},{"internalType":"uint256","name":"amount","type":"uint256"}],"name":"burn","outputs":[],"stateMutability":"nonpayable","type":"function"},{"inputs":[],"name":"desimals","outputs":[{"internalType":"uint256","name":"","type":"uint256"}],"stateMutability":"pure","type":"function"},{"inputs":[{"internalType":"uint256","name":"amount","type":"uint256"},{"internalType":"address","name":"shop","type":"address"}],"name":"mint","outputs":[],"stateMutability":"nonpayable","type":"function"},{"inputs":[],"name":"name","outputs":[{"internalType":"string","name":"","type":"string"}],"stateMutability":"view","type":"function"},{"inputs":[],"name":"symbol","outputs":[{"internalType":"string","name":"","type":"string"}],"stateMutability":"view","type":"function"},{"inputs":[],"name":"totalSuply","outputs":[{"internalType":"uint256","name":"","type":"uint256"}],"stateMutability":"view","type":"function"},{"inputs":[{"internalType":"address","name":"sender","type":"address"},{"internalType":"address","name":"resip","type":"address"},{"internalType":"uint256","name":"amount","type":"uint256"}],"name":"transfFrom","outputs":[],"stateMutability":"nonpayable","type":"function"},{"inputs":[{"internalType":"address","name":"to","type":"address"},{"internalType":"uint256","name":"amount","type":"uint256"}],"name":"transfer","outputs":[],"stateMutability":"nonpayable","type":"function"}],"evm":{"bytecode":{"linkReferences":{},"object":"60806040523480156200001157600080fd5b5060405162001a1938038062001a1983398181016040528101906200003791906200045a565b336000806101000a81548173ffffffffffffffffffffffffffffffffffffffff021916908373ffffffffffffffffffffffffffffffffffffffff16021790555083600390816200008891906200074b565b5082600490816200009a91906200074b565b50620000ad8282620000b760201b60201c565b505050506200094d565b60008054906101000a900473ffffffffffffffffffffffffffffffffffffffff1673ffffffffffffffffffffffffffffffffffffffff163373ffffffffffffffffffffffffffffffffffffffff161462000148576040517f08c379a00000000000000000000000000000000000000000000000000000000081526004016200013f9062000893565b60405180910390fd5b81600160008373ffffffffffffffffffffffffffffffffffffffff1673ffffffffffffffffffffffffffffffffffffffff1681526020019081526020016000206000828254620001999190620008e4565b925050819055508160056000828254620001b49190620008e4565b925050819055508073ffffffffffffffffffffffffffffffffffffffff16600073ffffffffffffffffffffffffffffffffffffffff167fddf252ad1be2c89b69c2b068fc378daa952ba7f163c4a11628f55a4df523b3ef846040516200021b919062000930565b60405180910390a35050565b6000604051905090565b600080fd5b600080fd5b600080fd5b600080fd5b6000601f19601f8301169050919050565b7f4e487b7100000000000000000000000000000000000000000000000000000000600052604160045260246000fd5b620002908262000245565b810181811067ffffffffffffffff82111715620002b257620002b162000256565b5b80604052505050565b6000620002c762000227565b9050620002d5828262000285565b919050565b600067ffffffffffffffff821115620002f857620002f762000256565b5b620003038262000245565b9050602081019050919050565b60005b838110156200033057808201518184015260208101905062000313565b60008484015250505050565b6000620003536200034d84620002da565b620002bb565b90508281526020810184848401111562000372576200037162000240565b5b6200037f84828562000310565b509392505050565b600082601f8301126200039f576200039e6200023b565b5b8151620003b18482602086016200033c565b91505092915050565b6000819050919050565b620003cf81620003ba565b8114620003db57600080fd5b50565b600081519050620003ef81620003c4565b92915050565b600073ffffffffffffffffffffffffffffffffffffffff82169050919050565b60006200042282620003f5565b9050919050565b620004348162000415565b81146200044057600080fd5b50565b600081519050620004548162000429565b92915050565b6000806000806080858703121562000477576200047662000231565b5b600085015167ffffffffffffffff81111562000498576200049762000236565b5b620004a68782880162000387565b945050602085015167ffffffffffffffff811115620004ca57620004c962000236565b5b620004d88782880162000387565b9350506040620004eb87828801620003de565b9250506060620004fe8782880162000443565b91505092959194509250565b600081519050919050565b7f4e487b7100000000000000000000000000000000000000000000000000000000600052602260045260246000fd5b600060028204905060018216806200055d57607f821691505b60208210810362000573576200057262000515565b5b50919050565b60008190508160005260206000209050919050565b60006020601f8301049050919050565b600082821b905092915050565b600060088302620005dd7fffffffffffffffffffffffffffffffffffffffffffffffffffffffffffffffff826200059e565b620005e986836200059e565b95508019841693508086168417925050509392505050565b6000819050919050565b60006200062c620006266200062084620003ba565b62000601565b620003ba565b9050919050565b6000819050919050565b62000648836200060b565b62000660620006578262000633565b848454620005ab565b825550505050565b600090565b6200067762000668565b620006848184846200063d565b505050565b5b81811015620006ac57620006a06000826200066d565b6001810190506200068a565b5050565b601f821115620006fb57620006c58162000579565b620006d0846200058e565b81016020851015620006e0578190505b620006f8620006ef856200058e565b83018262000689565b50505b505050565b600082821c905092915050565b6000620007206000198460080262000700565b1980831691505092915050565b60006200073b83836200070d565b9150826002028217905092915050565b62000756826200050a565b67ffffffffffffffff81111562000772576200077162000256565b5b6200077e825462000544565b6200078b828285620006b0565b600060209050601f831160018114620007c35760008415620007ae578287015190505b620007ba85826200072d565b8655506200082a565b601f198416620007d38662000579565b60005b82811015620007fd57848901518255600182019150602085019450602081019050620007d6565b868310156200081d578489015162000819601f8916826200070d565b8355505b6001600288020188555050505b505050505050565b600082825260208201905092915050565b7f796f75206e6f74206f776e657200000000000000000000000000000000000000600082015250565b60006200087b600d8362000832565b9150620008888262000843565b602082019050919050565b60006020820190508181036000830152620008ae816200086c565b9050919050565b7f4e487b7100000000000000000000000000000000000000000000000000000000600052601160045260246000fd5b6000620008f182620003ba565b9150620008fe83620003ba565b9250828201905080821115620009195762000918620008b5565b5b92915050565b6200092a81620003ba565b82525050565b60006020820190506200094760008301846200091f565b92915050565b6110bc806200095d6000396000f3fe608060405234801561001057600080fd5b50600436106100a95760003560e01c806394bf804d1161007157806394bf804d1461016657806395d89b41146101825780639dc29fac146101a0578063a2a96799146101bc578063a9059cbb146101da578063afa59236146101f6576100a9565b806306fdde03146100ae578063095ea7b3146100cc57806330938728146100e85780634164a92c1461010657806370a0823114610136575b600080fd5b6100b6610212565b6040516100c39190610c26565b60405180910390f35b6100e660048036038101906100e19190610ce1565b6102a4565b005b6100f06102b3565b6040516100fd9190610d30565b60405180910390f35b610120600480360381019061011b9190610d4b565b6102bc565b60405161012d9190610d30565b60405180910390f35b610150600480360381019061014b9190610d8b565b610343565b60405161015d9190610d30565b60405180910390f35b610180600480360381019061017b9190610db8565b61038c565b005b61018a6104f3565b6040516101979190610c26565b60405180910390f35b6101ba60048036038101906101b59190610ce1565b610585565b005b6101c4610686565b6040516101d19190610d30565b60405180910390f35b6101f460048036038101906101ef9190610ce1565b610690565b005b610210600480360381019061020b9190610df8565b6107f4565b005b60606003805461022190610e7a565b80601f016020809104026020016040519081016040528092919081815260200182805461024d90610e7a565b801561029a5780601f1061026f5761010080835404028352916020019161029a565b820191906000526020600020905b81548152906001019060200180831161027d57829003601f168201915b5050505050905090565b6102af338383610aab565b5050565b60006012905090565b6000600260008473ffffffffffffffffffffffffffffffffffffffff1673ffffffffffffffffffffffffffffffffffffffff16815260200190815260200160002060008373ffffffffffffffffffffffffffffffffffffffff1673ffffffffffffffffffffffffffffffffffffffff16815260200190815260200160002054905092915050565b6000600160008373ffffffffffffffffffffffffffffffffffffffff1673ffffffffffffffffffffffffffffffffffffffff168152602001908152602001600020549050919050565b60008054906101000a900473ffffffffffffffffffffffffffffffffffffffff1673ffffffffffffffffffffffffffffffffffffffff163373ffffffffffffffffffffffffffffffffffffffff161461041a576040517f08c379a000000000000000000000000000000000000000000000000000000000815260040161041190610ef7565b60405180910390fd5b81600160008373ffffffffffffffffffffffffffffffffffffffff1673ffffffffffffffffffffffffffffffffffffffff16815260200190815260200160002060008282546104699190610f46565b9250508190555081600560008282546104829190610f46565b925050819055508073ffffffffffffffffffffffffffffffffffffffff16600073ffffffffffffffffffffffffffffffffffffffff167fddf252ad1be2c89b69c2b068fc378daa952ba7f163c4a11628f55a4df523b3ef846040516104e79190610d30565b60405180910390a35050565b60606004805461050290610e7a565b80601f016020809104026020016040519081016040528092919081815260200182805461052e90610e7a565b801561057b5780601f106105505761010080835404028352916020019161057b565b820191906000526020600020905b81548152906001019060200180831161055e57829003601f168201915b5050505050905090565b60008054906101000a900473ffffffffffffffffffffffffffffffffffffffff1673ffffffffffffffffffffffffffffffffffffffff163373ffffffffffffffffffffffffffffffffffffffff1614610613576040517f08c379a000000000000000000000000000000000000000000000000000000000815260040161060a90610ef7565b60405180910390fd5b80600160008473ffffffffffffffffffffffffffffffffffffffff1673ffffffffffffffffffffffffffffffffffffffff16815260200190815260200160002060008282546106629190610f7a565b92505081905550806005600082825461067b9190610f7a565b925050819055505050565b6000600554905090565b33818061069c83610343565b10156106dd576040517f08c379a00000000000000000000000000000000000000000000000000000000081526004016106d490610ffa565b60405180910390fd5b82600160003373ffffffffffffffffffffffffffffffffffffffff1673ffffffffffffffffffffffffffffffffffffffff168152602001908152602001600020600082825461072c9190610f7a565b9250508190555082600160008673ffffffffffffffffffffffffffffffffffffffff1673ffffffffffffffffffffffffffffffffffffffff16815260200190815260200160002060008282546107829190610f46565b925050819055508373ffffffffffffffffffffffffffffffffffffffff163373ffffffffffffffffffffffffffffffffffffffff167fddf252ad1be2c89b69c2b068fc378daa952ba7f163c4a11628f55a4df523b3ef856040516107e69190610d30565b60405180910390a350505050565b82818061080083610343565b1015610841576040517f08c379a000000000000000000000000000000000000000000000000000000000815260040161083890610ffa565b60405180910390fd5b82600260008773ffffffffffffffffffffffffffffffffffffffff1673ffffffffffffffffffffffffffffffffffffffff16815260200190815260200160002060008673ffffffffffffffffffffffffffffffffffffffff1673ffffffffffffffffffffffffffffffffffffffff168152602001908152602001600020541015610900576040517f08c379a00000000000000000000000000000000000000000000000000000000081526004016108f790611066565b60405180910390fd5b82600260008773ffffffffffffffffffffffffffffffffffffffff1673ffffffffffffffffffffffffffffffffffffffff16815260200190815260200160002060008673ffffffffffffffffffffffffffffffffffffffff1673ffffffffffffffffffffffffffffffffffffffff168152602001908152602001600020600082825461098c9190610f7a565b9250508190555082600160008773ffffffffffffffffffffffffffffffffffffffff1673ffffffffffffffffffffffffffffffffffffffff16815260200190815260200160002060008282546109e29190610f7a565b9250508190555082600160008673ffffffffffffffffffffffffffffffffffffffff1673ffffffffffffffffffffffffffffffffffffffff1681526020019081526020016000206000828254610a389190610f46565b925050819055508373ffffffffffffffffffffffffffffffffffffffff168573ffffffffffffffffffffffffffffffffffffffff167f6e11fb1b7f119e3f2fa29896ef5fdf8b8a2d0d4df6fe90ba8668e7d8b2ffa25e85604051610a9c9190610d30565b60405180910390a35050505050565b80600260008573ffffffffffffffffffffffffffffffffffffffff1673ffffffffffffffffffffffffffffffffffffffff16815260200190815260200160002060008473ffffffffffffffffffffffffffffffffffffffff1673ffffffffffffffffffffffffffffffffffffffff168152602001908152602001600020819055508173ffffffffffffffffffffffffffffffffffffffff168373ffffffffffffffffffffffffffffffffffffffff167f6e11fb1b7f119e3f2fa29896ef5fdf8b8a2d0d4df6fe90ba8668e7d8b2ffa25e83604051610b899190610d30565b60405180910390a3505050565b600081519050919050565b600082825260208201905092915050565b60005b83811015610bd0578082015181840152602081019050610bb5565b60008484015250505050565b6000601f19601f8301169050919050565b6000610bf882610b96565b610c028185610ba1565b9350610c12818560208601610bb2565b610c1b81610bdc565b840191505092915050565b60006020820190508181036000830152610c408184610bed565b905092915050565b600080fd5b600073ffffffffffffffffffffffffffffffffffffffff82169050919050565b6000610c7882610c4d565b9050919050565b610c8881610c6d565b8114610c9357600080fd5b50565b600081359050610ca581610c7f565b92915050565b6000819050919050565b610cbe81610cab565b8114610cc957600080fd5b50565b600081359050610cdb81610cb5565b92915050565b60008060408385031215610cf857610cf7610c48565b5b6000610d0685828601610c96565b9250506020610d1785828601610ccc565b9150509250929050565b610d2a81610cab565b82525050565b6000602082019050610d456000830184610d21565b92915050565b60008060408385031215610d6257610d61610c48565b5b6000610d7085828601610c96565b9250506020610d8185828601610c96565b9150509250929050565b600060208284031215610da157610da0610c48565b5b6000610daf84828501610c96565b91505092915050565b60008060408385031215610dcf57610dce610c48565b5b6000610ddd85828601610ccc565b9250506020610dee85828601610c96565b9150509250929050565b600080600060608486031215610e1157610e10610c48565b5b6000610e1f86828701610c96565b9350506020610e3086828701610c96565b9250506040610e4186828701610ccc565b9150509250925092565b7f4e487b7100000000000000000000000000000000000000000000000000000000600052602260045260246000fd5b60006002820490506001821680610e9257607f821691505b602082108103610ea557610ea4610e4b565b5b50919050565b7f796f75206e6f74206f776e657200000000000000000000000000000000000000600082015250565b6000610ee1600d83610ba1565b9150610eec82610eab565b602082019050919050565b60006020820190508181036000830152610f1081610ed4565b9050919050565b7f4e487b7100000000000000000000000000000000000000000000000000000000600052601160045260246000fd5b6000610f5182610cab565b9150610f5c83610cab565b9250828201905080821115610f7457610f73610f17565b5b92915050565b6000610f8582610cab565b9150610f9083610cab565b9250828203905081811115610fa857610fa7610f17565b5b92915050565b7f6e6f7420656e6f7567687420746f6b656e000000000000000000000000000000600082015250565b6000610fe4601183610ba1565b9150610fef82610fae565b602082019050919050565b6000602082019050818103600083015261101381610fd7565b9050919050565b7f636865636b20616c6c6f77616e63657321000000000000000000000000000000600082015250565b6000611050601183610ba1565b915061105b8261101a565b602082019050919050565b6000602082019050818103600083015261107f81611043565b905091905056fea2646970667358221220172ad988c4f84852f2af35a53550d238a65f869386297dab558a804b1b435d4164736f6c63430008120033","opcodes":"PUSH1 0x80 PUSH1 0x40 MSTORE CALLVALUE DUP1 ISZERO PUSH3 0x11 JUMPI PUSH1 0x0 DUP1 REVERT JUMPDEST POP PUSH1 0x40 MLOAD PUSH3 0x1A19 CODESIZE SUB DUP1 PUSH3 0x1A19 DUP4 CODECOPY DUP2 DUP2 ADD PUSH1 0x40 MSTORE DUP2 ADD SWAP1 PUSH3 0x37 SWAP2 SWAP1 PUSH3 0x45A JUMP JUMPDEST CALLER PUSH1 0x0 DUP1 PUSH2 0x100 EXP DUP2 SLOAD DUP2 PUSH20 0xFFFFFFFFFFFFFFFFFFFFFFFFFFFFFFFFFFFFFFFF MUL NOT AND SWAP1 DUP4 PUSH20 0xFFFFFFFFFFFFFFFFFFFFFFFFFFFFFFFFFFFFFFFF AND MUL OR SWAP1 SSTORE POP DUP4 PUSH1 0x3 SWAP1 DUP2 PUSH3 0x88 SWAP2 SWAP1 PUSH3 0x74B JUMP JUMPDEST POP DUP3 PUSH1 0x4 SWAP1 DUP2 PUSH3 0x9A SWAP2 SWAP1 PUSH3 0x74B JUMP JUMPDEST POP PUSH3 0xAD DUP3 DUP3 PUSH3 0xB7 PUSH1 0x20 SHL PUSH1 0x20 SHR JUMP JUMPDEST POP POP POP POP PUSH3 0x94D JUMP JUMPDEST PUSH1 0x0 DUP1 SLOAD SWAP1 PUSH2 0x100 EXP SWAP1 DIV PUSH20 0xFFFFFFFFFFFFFFFFFFFFFFFFFFFFFFFFFFFFFFFF AND PUSH20 0xFFFFFFFFFFFFFFFFFFFFFFFFFFFFFFFFFFFFFFFF AND CALLER PUSH20 0xFFFFFFFFFFFFFFFFFFFFFFFFFFFFFFFFFFFFFFFF AND EQ PUSH3 0x148 JUMPI PUSH1 0x40 MLOAD PUSH32 0x8C379A000000000000000000000000000000000000000000000000000000000 DUP2 MSTORE PUSH1 0x4 ADD PUSH3 0x13F SWAP1 PUSH3 0x893 JUMP JUMPDEST PUSH1 0x40 MLOAD DUP1 SWAP2 SUB SWAP1 REVERT JUMPDEST DUP2 PUSH1 0x1 PUSH1 0x0 DUP4 PUSH20 0xFFFFFFFFFFFFFFFFFFFFFFFFFFFFFFFFFFFFFFFF AND PUSH20 0xFFFFFFFFFFFFFFFFFFFFFFFFFFFFFFFFFFFFFFFF AND DUP2 MSTORE PUSH1 0x20 ADD SWAP1 DUP2 MSTORE PUSH1 0x20 ADD PUSH1 0x0 KECCAK256 PUSH1 0x0 DUP3 DUP3 SLOAD PUSH3 0x199 SWAP2 SWAP1 PUSH3 0x8E4 JUMP JUMPDEST SWAP3 POP POP DUP2 SWAP1 SSTORE POP DUP2 PUSH1 0x5 PUSH1 0x0 DUP3 DUP3 SLOAD PUSH3 0x1B4 SWAP2 SWAP1 PUSH3 0x8E4 JUMP JUMPDEST SWAP3 POP POP DUP2 SWAP1 SSTORE POP DUP1 PUSH20 0xFFFFFFFFFFFFFFFFFFFFFFFFFFFFFFFFFFFFFFFF AND PUSH1 0x0 PUSH20 0xFFFFFFFFFFFFFFFFFFFFFFFFFFFFFFFFFFFFFFFF AND PUSH32 0xDDF252AD1BE2C89B69C2B068FC378DAA952BA7F163C4A11628F55A4DF523B3EF DUP5 PUSH1 0x40 MLOAD PUSH3 0x21B SWAP2 SWAP1 PUSH3 0x930 JUMP JUMPDEST PUSH1 0x40 MLOAD DUP1 SWAP2 SUB SWAP1 LOG3 POP POP JUMP JUMPDEST PUSH1 0x0 PUSH1 0x40 MLOAD SWAP1 POP SWAP1 JUMP JUMPDEST PUSH1 0x0 DUP1 REVERT JUMPDEST PUSH1 0x0 DUP1 REVERT JUMPDEST PUSH1 0x0 DUP1 REVERT JUMPDEST PUSH1 0x0 DUP1 REVERT JUMPDEST PUSH1 0x0 PUSH1 0x1F NOT PUSH1 0x1F DUP4 ADD AND SWAP1 POP SWAP2 SWAP1 POP JUMP JUMPDEST PUSH32 0x4E487B7100000000000000000000000000000000000000000000000000000000 PUSH1 0x0 MSTORE PUSH1 0x41 PUSH1 0x4 MSTORE PUSH1 0x24 PUSH1 0x0 REVERT JUMPDEST PUSH3 0x290 DUP3 PUSH3 0x245 JUMP JUMPDEST DUP2 ADD DUP2 DUP2 LT PUSH8 0xFFFFFFFFFFFFFFFF DUP3 GT OR ISZERO PUSH3 0x2B2 JUMPI PUSH3 0x2B1 PUSH3 0x256 JUMP JUMPDEST JUMPDEST DUP1 PUSH1 0x40 MSTORE POP POP POP JUMP JUMPDEST PUSH1 0x0 PUSH3 0x2C7 PUSH3 0x227 JUMP JUMPDEST SWAP1 POP PUSH3 0x2D5 DUP3 DUP3 PUSH3 0x285 JUMP JUMPDEST SWAP2 SWAP1 POP JUMP JUMPDEST PUSH1 0x0 PUSH8 0xFFFFFFFFFFFFFFFF DUP3 GT ISZERO PUSH3 0x2F8 JUMPI PUSH3 0x2F7 PUSH3 0x256 JUMP JUMPDEST JUMPDEST PUSH3 0x303 DUP3 PUSH3 0x245 JUMP JUMPDEST SWAP1 POP PUSH1 0x20 DUP2 ADD SWAP1 POP SWAP2 SWAP1 POP JUMP JUMPDEST PUSH1 0x0 JUMPDEST DUP4 DUP2 LT ISZERO PUSH3 0x330 JUMPI DUP1 DUP3 ADD MLOAD DUP2 DUP5 ADD MSTORE PUSH1 0x20 DUP2 ADD SWAP1 POP PUSH3 0x313 JUMP JUMPDEST PUSH1 0x0 DUP5 DUP5 ADD MSTORE POP POP POP POP JUMP JUMPDEST PUSH1 0x0 PUSH3 0x353 PUSH3 0x34D DUP5 PUSH3 0x2DA JUMP JUMPDEST PUSH3 0x2BB JUMP JUMPDEST SWAP1 POP DUP3 DUP2 MSTORE PUSH1 0x20 DUP2 ADD DUP5 DUP5 DUP5 ADD GT ISZERO PUSH3 0x372 JUMPI PUSH3 0x371 PUSH3 0x240 JUMP JUMPDEST JUMPDEST PUSH3 0x37F DUP5 DUP3 DUP6 PUSH3 0x310 JUMP JUMPDEST POP SWAP4 SWAP3 POP POP POP JUMP JUMPDEST PUSH1 0x0 DUP3 PUSH1 0x1F DUP4 ADD SLT PUSH3 0x39F JUMPI PUSH3 0x39E PUSH3 0x23B JUMP JUMPDEST JUMPDEST DUP2 MLOAD PUSH3 0x3B1 DUP5 DUP3 PUSH1 0x20 DUP7 ADD PUSH3 0x33C JUMP JUMPDEST SWAP2 POP POP SWAP3 SWAP2 POP POP JUMP JUMPDEST PUSH1 0x0 DUP2 SWAP1 POP SWAP2 SWAP1 POP JUMP JUMPDEST PUSH3 0x3CF DUP2 PUSH3 0x3BA JUMP JUMPDEST DUP2 EQ PUSH3 0x3DB JUMPI PUSH1 0x0 DUP1 REVERT JUMPDEST POP JUMP JUMPDEST PUSH1 0x0 DUP2 MLOAD SWAP1 POP PUSH3 0x3EF DUP2 PUSH3 0x3C4 JUMP JUMPDEST SWAP3 SWAP2 POP POP JUMP JUMPDEST PUSH1 0x0 PUSH20 0xFFFFFFFFFFFFFFFFFFFFFFFFFFFFFFFFFFFFFFFF DUP3 AND SWAP1 POP SWAP2 SWAP1 POP JUMP JUMPDEST PUSH1 0x0 PUSH3 0x422 DUP3 PUSH3 0x3F5 JUMP JUMPDEST SWAP1 POP SWAP2 SWAP1 POP JUMP JUMPDEST PUSH3 0x434 DUP2 PUSH3 0x415 JUMP JUMPDEST DUP2 EQ PUSH3 0x440 JUMPI PUSH1 0x0 DUP1 REVERT JUMPDEST POP JUMP JUMPDEST PUSH1 0x0 DUP2 MLOAD SWAP1 POP PUSH3 0x454 DUP2 PUSH3 0x429 JUMP JUMPDEST SWAP3 SWAP2 POP POP JUMP JUMPDEST PUSH1 0x0 DUP1 PUSH1 0x0 DUP1 PUSH1 0x80 DUP6 DUP8 SUB SLT ISZERO PUSH3 0x477 JUMPI PUSH3 0x476 PUSH3 0x231 JUMP JUMPDEST JUMPDEST PUSH1 0x0 DUP6 ADD MLOAD PUSH8 0xFFFFFFFFFFFFFFFF DUP2 GT ISZERO PUSH3 0x498 JUMPI PUSH3 0x497 PUSH3 0x236 JUMP JUMPDEST JUMPDEST PUSH3 0x4A6 DUP8 DUP3 DUP9 ADD PUSH3 0x387 JUMP JUMPDEST SWAP5 POP POP PUSH1 0x20 DUP6 ADD MLOAD PUSH8 0xFFFFFFFFFFFFFFFF DUP2 GT ISZERO PUSH3 0x4CA JUMPI PUSH3 0x4C9 PUSH3 0x236 JUMP JUMPDEST JUMPDEST PUSH3 0x4D8 DUP8 DUP3 DUP9 ADD PUSH3 0x387 JUMP JUMPDEST SWAP4 POP POP PUSH1 0x40 PUSH3 0x4EB DUP8 DUP3 DUP9 ADD PUSH3 0x3DE JUMP JUMPDEST SWAP3 POP POP PUSH1 0x60 PUSH3 0x4FE DUP8 DUP3 DUP9 ADD PUSH3 0x443 JUMP JUMPDEST SWAP2 POP POP SWAP3 SWAP6 SWAP2 SWAP5 POP SWAP3 POP JUMP JUMPDEST PUSH1 0x0 DUP2 MLOAD SWAP1 POP SWAP2 SWAP1 POP JUMP JUMPDEST PUSH32 0x4E487B7100000000000000000000000000000000000000000000000000000000 PUSH1 0x0 MSTORE PUSH1 0x22 PUSH1 0x4 MSTORE PUSH1 0x24 PUSH1 0x0 REVERT JUMPDEST PUSH1 0x0 PUSH1 0x2 DUP3 DIV SWAP1 POP PUSH1 0x1 DUP3 AND DUP1 PUSH3 0x55D JUMPI PUSH1 0x7F DUP3 AND SWAP2 POP JUMPDEST PUSH1 0x20 DUP3 LT DUP2 SUB PUSH3 0x573 JUMPI PUSH3 0x572 PUSH3 0x515 JUMP JUMPDEST JUMPDEST POP SWAP2 SWAP1 POP JUMP JUMPDEST PUSH1 0x0 DUP2 SWAP1 POP DUP2 PUSH1 0x0 MSTORE PUSH1 0x20 PUSH1 0x0 KECCAK256 SWAP1 POP SWAP2 SWAP1 POP JUMP JUMPDEST PUSH1 0x0 PUSH1 0x20 PUSH1 0x1F DUP4 ADD DIV SWAP1 POP SWAP2 SWAP1 POP JUMP JUMPDEST PUSH1 0x0 DUP3 DUP3 SHL SWAP1 POP SWAP3 SWAP2 POP POP JUMP JUMPDEST PUSH1 0x0 PUSH1 0x8 DUP4 MUL PUSH3 0x5DD PUSH32 0xFFFFFFFFFFFFFFFFFFFFFFFFFFFFFFFFFFFFFFFFFFFFFFFFFFFFFFFFFFFFFFFF DUP3 PUSH3 0x59E JUMP JUMPDEST PUSH3 0x5E9 DUP7 DUP4 PUSH3 0x59E JUMP JUMPDEST SWAP6 POP DUP1 NOT DUP5 AND SWAP4 POP DUP1 DUP7 AND DUP5 OR SWAP3 POP POP POP SWAP4 SWAP3 POP POP POP JUMP JUMPDEST PUSH1 0x0 DUP2 SWAP1 POP SWAP2 SWAP1 POP JUMP JUMPDEST PUSH1 0x0 PUSH3 0x62C PUSH3 0x626 PUSH3 0x620 DUP5 PUSH3 0x3BA JUMP JUMPDEST PUSH3 0x601 JUMP JUMPDEST PUSH3 0x3BA JUMP JUMPDEST SWAP1 POP SWAP2 SWAP1 POP JUMP JUMPDEST PUSH1 0x0 DUP2 SWAP1 POP SWAP2 SWAP1 POP JUMP JUMPDEST PUSH3 0x648 DUP4 PUSH3 0x60B JUMP JUMPDEST PUSH3 0x660 PUSH3 0x657 DUP3 PUSH3 0x633 JUMP JUMPDEST DUP5 DUP5 SLOAD PUSH3 0x5AB JUMP JUMPDEST DUP3 SSTORE POP POP POP POP JUMP JUMPDEST PUSH1 0x0 SWAP1 JUMP JUMPDEST PUSH3 0x677 PUSH3 0x668 JUMP JUMPDEST PUSH3 0x684 DUP2 DUP5 DUP5 PUSH3 0x63D JUMP JUMPDEST POP POP POP JUMP JUMPDEST JUMPDEST DUP2 DUP2 LT ISZERO PUSH3 0x6AC JUMPI PUSH3 0x6A0 PUSH1 0x0 DUP3 PUSH3 0x66D JUMP JUMPDEST PUSH1 0x1 DUP2 ADD SWAP1 POP PUSH3 0x68A JUMP JUMPDEST POP POP JUMP JUMPDEST PUSH1 0x1F DUP3 GT ISZERO PUSH3 0x6FB JUMPI PUSH3 0x6C5 DUP2 PUSH3 0x579 JUMP JUMPDEST PUSH3 0x6D0 DUP5 PUSH3 0x58E JUMP JUMPDEST DUP2 ADD PUSH1 0x20 DUP6 LT ISZERO PUSH3 0x6E0 JUMPI DUP2 SWAP1 POP JUMPDEST PUSH3 0x6F8 PUSH3 0x6EF DUP6 PUSH3 0x58E JUMP JUMPDEST DUP4 ADD DUP3 PUSH3 0x689 JUMP JUMPDEST POP POP JUMPDEST POP POP POP JUMP JUMPDEST PUSH1 0x0 DUP3 DUP3 SHR SWAP1 POP SWAP3 SWAP2 POP POP JUMP JUMPDEST PUSH1 0x0 PUSH3 0x720 PUSH1 0x0 NOT DUP5 PUSH1 0x8 MUL PUSH3 0x700 JUMP JUMPDEST NOT DUP1 DUP4 AND SWAP2 POP POP SWAP3 SWAP2 POP POP JUMP JUMPDEST PUSH1 0x0 PUSH3 0x73B DUP4 DUP4 PUSH3 0x70D JUMP JUMPDEST SWAP2 POP DUP3 PUSH1 0x2 MUL DUP3 OR SWAP1 POP SWAP3 SWAP2 POP POP JUMP JUMPDEST PUSH3 0x756 DUP3 PUSH3 0x50A JUMP JUMPDEST PUSH8 0xFFFFFFFFFFFFFFFF DUP2 GT ISZERO PUSH3 0x772 JUMPI PUSH3 0x771 PUSH3 0x256 JUMP JUMPDEST JUMPDEST PUSH3 0x77E DUP3 SLOAD PUSH3 0x544 JUMP JUMPDEST PUSH3 0x78B DUP3 DUP3 DUP6 PUSH3 0x6B0 JUMP JUMPDEST PUSH1 0x0 PUSH1 0x20 SWAP1 POP PUSH1 0x1F DUP4 GT PUSH1 0x1 DUP2 EQ PUSH3 0x7C3 JUMPI PUSH1 0x0 DUP5 ISZERO PUSH3 0x7AE JUMPI DUP3 DUP8 ADD MLOAD SWAP1 POP JUMPDEST PUSH3 0x7BA DUP6 DUP3 PUSH3 0x72D JUMP JUMPDEST DUP7 SSTORE POP PUSH3 0x82A JUMP JUMPDEST PUSH1 0x1F NOT DUP5 AND PUSH3 0x7D3 DUP7 PUSH3 0x579 JUMP JUMPDEST PUSH1 0x0 JUMPDEST DUP3 DUP2 LT ISZERO PUSH3 0x7FD JUMPI DUP5 DUP10 ADD MLOAD DUP3 SSTORE PUSH1 0x1 DUP3 ADD SWAP2 POP PUSH1 0x20 DUP6 ADD SWAP5 POP PUSH1 0x20 DUP2 ADD SWAP1 POP PUSH3 0x7D6 JUMP JUMPDEST DUP7 DUP4 LT ISZERO PUSH3 0x81D JUMPI DUP5 DUP10 ADD MLOAD PUSH3 0x819 PUSH1 0x1F DUP10 AND DUP3 PUSH3 0x70D JUMP JUMPDEST DUP4 SSTORE POP JUMPDEST PUSH1 0x1 PUSH1 0x2 DUP9 MUL ADD DUP9 SSTORE POP POP POP JUMPDEST POP POP POP POP POP POP JUMP JUMPDEST PUSH1 0x0 DUP3 DUP3 MSTORE PUSH1 0x20 DUP3 ADD SWAP1 POP SWAP3 SWAP2 POP POP JUMP JUMPDEST PUSH32 0x796F75206E6F74206F776E657200000000000000000000000000000000000000 PUSH1 0x0 DUP3 ADD MSTORE POP JUMP JUMPDEST PUSH1 0x0 PUSH3 0x87B PUSH1 0xD DUP4 PUSH3 0x832 JUMP JUMPDEST SWAP2 POP PUSH3 0x888 DUP3 PUSH3 0x843 JUMP JUMPDEST PUSH1 0x20 DUP3 ADD SWAP1 POP SWAP2 SWAP1 POP JUMP JUMPDEST PUSH1 0x0 PUSH1 0x20 DUP3 ADD SWAP1 POP DUP2 DUP2 SUB PUSH1 0x0 DUP4 ADD MSTORE PUSH3 0x8AE DUP2 PUSH3 0x86C JUMP JUMPDEST SWAP1 POP SWAP2 SWAP1 POP JUMP JUMPDEST PUSH32 0x4E487B7100000000000000000000000000000000000000000000000000000000 PUSH1 0x0 MSTORE PUSH1 0x11 PUSH1 0x4 MSTORE PUSH1 0x24 PUSH1 0x0 REVERT JUMPDEST PUSH1 0x0 PUSH3 0x8F1 DUP3 PUSH3 0x3BA JUMP JUMPDEST SWAP2 POP PUSH3 0x8FE DUP4 PUSH3 0x3BA JUMP JUMPDEST SWAP3 POP DUP3 DUP3 ADD SWAP1 POP DUP1 DUP3 GT ISZERO PUSH3 0x919 JUMPI PUSH3 0x918 PUSH3 0x8B5 JUMP JUMPDEST JUMPDEST SWAP3 SWAP2 POP POP JUMP JUMPDEST PUSH3 0x92A DUP2 PUSH3 0x3BA JUMP JUMPDEST DUP3 MSTORE POP POP JUMP JUMPDEST PUSH1 0x0 PUSH1 0x20 DUP3 ADD SWAP1 POP PUSH3 0x947 PUSH1 0x0 DUP4 ADD DUP5 PUSH3 0x91F JUMP JUMPDEST SWAP3 SWAP2 POP POP JUMP JUMPDEST PUSH2 0x10BC DUP1 PUSH3 0x95D PUSH1 0x0 CODECOPY PUSH1 0x0 RETURN INVALID PUSH1 0x80 PUSH1 0x40 MSTORE CALLVALUE DUP1 ISZERO PUSH2 0x10 JUMPI PUSH1 0x0 DUP1 REVERT JUMPDEST POP PUSH1 0x4 CALLDATASIZE LT PUSH2 0xA9 JUMPI PUSH1 0x0 CALLDATALOAD PUSH1 0xE0 SHR DUP1 PUSH4 0x94BF804D GT PUSH2 0x71 JUMPI DUP1 PUSH4 0x94BF804D EQ PUSH2 0x166 JUMPI DUP1 PUSH4 0x95D89B41 EQ PUSH2 0x182 JUMPI DUP1 PUSH4 0x9DC29FAC EQ PUSH2 0x1A0 JUMPI DUP1 PUSH4 0xA2A96799 EQ PUSH2 0x1BC JUMPI DUP1 PUSH4 0xA9059CBB EQ PUSH2 0x1DA JUMPI DUP1 PUSH4 0xAFA59236 EQ PUSH2 0x1F6 JUMPI PUSH2 0xA9 JUMP JUMPDEST DUP1 PUSH4 0x6FDDE03 EQ PUSH2 0xAE JUMPI DUP1 PUSH4 0x95EA7B3 EQ PUSH2 0xCC JUMPI DUP1 PUSH4 0x30938728 EQ PUSH2 0xE8 JUMPI DUP1 PUSH4 0x4164A92C EQ PUSH2 0x106 JUMPI DUP1 PUSH4 0x70A08231 EQ PUSH2 0x136 JUMPI JUMPDEST PUSH1 0x0 DUP1 REVERT JUMPDEST PUSH2 0xB6 PUSH2 0x212 JUMP JUMPDEST PUSH1 0x40 MLOAD PUSH2 0xC3 SWAP2 SWAP1 PUSH2 0xC26 JUMP JUMPDEST PUSH1 0x40 MLOAD DUP1 SWAP2 SUB SWAP1 RETURN JUMPDEST PUSH2 0xE6 PUSH1 0x4 DUP1 CALLDATASIZE SUB DUP2 ADD SWAP1 PUSH2 0xE1 SWAP2 SWAP1 PUSH2 0xCE1 JUMP JUMPDEST PUSH2 0x2A4 JUMP JUMPDEST STOP JUMPDEST PUSH2 0xF0 PUSH2 0x2B3 JUMP JUMPDEST PUSH1 0x40 MLOAD PUSH2 0xFD SWAP2 SWAP1 PUSH2 0xD30 JUMP JUMPDEST PUSH1 0x40 MLOAD DUP1 SWAP2 SUB SWAP1 RETURN JUMPDEST PUSH2 0x120 PUSH1 0x4 DUP1 CALLDATASIZE SUB DUP2 ADD SWAP1 PUSH2 0x11B SWAP2 SWAP1 PUSH2 0xD4B JUMP JUMPDEST PUSH2 0x2BC JUMP JUMPDEST PUSH1 0x40 MLOAD PUSH2 0x12D SWAP2 SWAP1 PUSH2 0xD30 JUMP JUMPDEST PUSH1 0x40 MLOAD DUP1 SWAP2 SUB SWAP1 RETURN JUMPDEST PUSH2 0x150 PUSH1 0x4 DUP1 CALLDATASIZE SUB DUP2 ADD SWAP1 PUSH2 0x14B SWAP2 SWAP1 PUSH2 0xD8B JUMP JUMPDEST PUSH2 0x343 JUMP JUMPDEST PUSH1 0x40 MLOAD PUSH2 0x15D SWAP2 SWAP1 PUSH2 0xD30 JUMP JUMPDEST PUSH1 0x40 MLOAD DUP1 SWAP2 SUB SWAP1 RETURN JUMPDEST PUSH2 0x180 PUSH1 0x4 DUP1 CALLDATASIZE SUB DUP2 ADD SWAP1 PUSH2 0x17B SWAP2 SWAP1 PUSH2 0xDB8 JUMP JUMPDEST PUSH2 0x38C JUMP JUMPDEST STOP JUMPDEST PUSH2 0x18A PUSH2 0x4F3 JUMP JUMPDEST PUSH1 0x40 MLOAD PUSH2 0x197 SWAP2 SWAP1 PUSH2 0xC26 JUMP JUMPDEST PUSH1 0x40 MLOAD DUP1 SWAP2 SUB SWAP1 RETURN JUMPDEST PUSH2 0x1BA PUSH1 0x4 DUP1 CALLDATASIZE SUB DUP2 ADD SWAP1 PUSH2 0x1B5 SWAP2 SWAP1 PUSH2 0xCE1 JUMP JUMPDEST PUSH2 0x585 JUMP JUMPDEST STOP JUMPDEST PUSH2 0x1C4 PUSH2 0x686 JUMP JUMPDEST PUSH1 0x40 MLOAD PUSH2 0x1D1 SWAP2 SWAP1 PUSH2 0xD30 JUMP JUMPDEST PUSH1 0x40 MLOAD DUP1 SWAP2 SUB SWAP1 RETURN JUMPDEST PUSH2 0x1F4 PUSH1 0x4 DUP1 CALLDATASIZE SUB DUP2 ADD SWAP1 PUSH2 0x1EF SWAP2 SWAP1 PUSH2 0xCE1 JUMP JUMPDEST PUSH2 0x690 JUMP JUMPDEST STOP JUMPDEST PUSH2 0x210 PUSH1 0x4 DUP1 CALLDATASIZE SUB DUP2 ADD SWAP1 PUSH2 0x20B SWAP2 SWAP1 PUSH2 0xDF8 JUMP JUMPDEST PUSH2 0x7F4 JUMP JUMPDEST STOP JUMPDEST PUSH1 0x60 PUSH1 0x3 DUP1 SLOAD PUSH2 0x221 SWAP1 PUSH2 0xE7A JUMP JUMPDEST DUP1 PUSH1 0x1F ADD PUSH1 0x20 DUP1 SWAP2 DIV MUL PUSH1 0x20 ADD PUSH1 0x40 MLOAD SWAP1 DUP2 ADD PUSH1 0x40 MSTORE DUP1 SWAP3 SWAP2 SWAP1 DUP2 DUP2 MSTORE PUSH1 0x20 ADD DUP3 DUP1 SLOAD PUSH2 0x24D SWAP1 PUSH2 0xE7A JUMP JUMPDEST DUP1 ISZERO PUSH2 0x29A JUMPI DUP1 PUSH1 0x1F LT PUSH2 0x26F JUMPI PUSH2 0x100 DUP1 DUP4 SLOAD DIV MUL DUP4 MSTORE SWAP2 PUSH1 0x20 ADD SWAP2 PUSH2 0x29A JUMP JUMPDEST DUP3 ADD SWAP2 SWAP1 PUSH1 0x0 MSTORE PUSH1 0x20 PUSH1 0x0 KECCAK256 SWAP1 JUMPDEST DUP2 SLOAD DUP2 MSTORE SWAP1 PUSH1 0x1 ADD SWAP1 PUSH1 0x20 ADD DUP1 DUP4 GT PUSH2 0x27D JUMPI DUP3 SWAP1 SUB PUSH1 0x1F AND DUP3 ADD SWAP2 JUMPDEST POP POP POP POP POP SWAP1 POP SWAP1 JUMP JUMPDEST PUSH2 0x2AF CALLER DUP4 DUP4 PUSH2 0xAAB JUMP JUMPDEST POP POP JUMP JUMPDEST PUSH1 0x0 PUSH1 0x12 SWAP1 POP SWAP1 JUMP JUMPDEST PUSH1 0x0 PUSH1 0x2 PUSH1 0x0 DUP5 PUSH20 0xFFFFFFFFFFFFFFFFFFFFFFFFFFFFFFFFFFFFFFFF AND PUSH20 0xFFFFFFFFFFFFFFFFFFFFFFFFFFFFFFFFFFFFFFFF AND DUP2 MSTORE PUSH1 0x20 ADD SWAP1 DUP2 MSTORE PUSH1 0x20 ADD PUSH1 0x0 KECCAK256 PUSH1 0x0 DUP4 PUSH20 0xFFFFFFFFFFFFFFFFFFFFFFFFFFFFFFFFFFFFFFFF AND PUSH20 0xFFFFFFFFFFFFFFFFFFFFFFFFFFFFFFFFFFFFFFFF AND DUP2 MSTORE PUSH1 0x20 ADD SWAP1 DUP2 MSTORE PUSH1 0x20 ADD PUSH1 0x0 KECCAK256 SLOAD SWAP1 POP SWAP3 SWAP2 POP POP JUMP JUMPDEST PUSH1 0x0 PUSH1 0x1 PUSH1 0x0 DUP4 PUSH20 0xFFFFFFFFFFFFFFFFFFFFFFFFFFFFFFFFFFFFFFFF AND PUSH20 0xFFFFFFFFFFFFFFFFFFFFFFFFFFFFFFFFFFFFFFFF AND DUP2 MSTORE PUSH1 0x20 ADD SWAP1 DUP2 MSTORE PUSH1 0x20 ADD PUSH1 0x0 KECCAK256 SLOAD SWAP1 POP SWAP2 SWAP1 POP JUMP JUMPDEST PUSH1 0x0 DUP1 SLOAD SWAP1 PUSH2 0x100 EXP SWAP1 DIV PUSH20 0xFFFFFFFFFFFFFFFFFFFFFFFFFFFFFFFFFFFFFFFF AND PUSH20 0xFFFFFFFFFFFFFFFFFFFFFFFFFFFFFFFFFFFFFFFF AND CALLER PUSH20 0xFFFFFFFFFFFFFFFFFFFFFFFFFFFFFFFFFFFFFFFF AND EQ PUSH2 0x41A JUMPI PUSH1 0x40 MLOAD PUSH32 0x8C379A000000000000000000000000000000000000000000000000000000000 DUP2 MSTORE PUSH1 0x4 ADD PUSH2 0x411 SWAP1 PUSH2 0xEF7 JUMP JUMPDEST PUSH1 0x40 MLOAD DUP1 SWAP2 SUB SWAP1 REVERT JUMPDEST DUP2 PUSH1 0x1 PUSH1 0x0 DUP4 PUSH20 0xFFFFFFFFFFFFFFFFFFFFFFFFFFFFFFFFFFFFFFFF AND PUSH20 0xFFFFFFFFFFFFFFFFFFFFFFFFFFFFFFFFFFFFFFFF AND DUP2 MSTORE PUSH1 0x20 ADD SWAP1 DUP2 MSTORE PUSH1 0x20 ADD PUSH1 0x0 KECCAK256 PUSH1 0x0 DUP3 DUP3 SLOAD PUSH2 0x469 SWAP2 SWAP1 PUSH2 0xF46 JUMP JUMPDEST SWAP3 POP POP DUP2 SWAP1 SSTORE POP DUP2 PUSH1 0x5 PUSH1 0x0 DUP3 DUP3 SLOAD PUSH2 0x482 SWAP2 SWAP1 PUSH2 0xF46 JUMP JUMPDEST SWAP3 POP POP DUP2 SWAP1 SSTORE POP DUP1 PUSH20 0xFFFFFFFFFFFFFFFFFFFFFFFFFFFFFFFFFFFFFFFF AND PUSH1 0x0 PUSH20 0xFFFFFFFFFFFFFFFFFFFFFFFFFFFFFFFFFFFFFFFF AND PUSH32 0xDDF252AD1BE2C89B69C2B068FC378DAA952BA7F163C4A11628F55A4DF523B3EF DUP5 PUSH1 0x40 MLOAD PUSH2 0x4E7 SWAP2 SWAP1 PUSH2 0xD30 JUMP JUMPDEST PUSH1 0x40 MLOAD DUP1 SWAP2 SUB SWAP1 LOG3 POP POP JUMP JUMPDEST PUSH1 0x60 PUSH1 0x4 DUP1 SLOAD PUSH2 0x502 SWAP1 PUSH2 0xE7A JUMP JUMPDEST DUP1 PUSH1 0x1F ADD PUSH1 0x20 DUP1 SWAP2 DIV MUL PUSH1 0x20 ADD PUSH1 0x40 MLOAD SWAP1 DUP2 ADD PUSH1 0x40 MSTORE DUP1 SWAP3 SWAP2 SWAP1 DUP2 DUP2 MSTORE PUSH1 0x20 ADD DUP3 DUP1 SLOAD PUSH2 0x52E SWAP1 PUSH2 0xE7A JUMP JUMPDEST DUP1 ISZERO PUSH2 0x57B JUMPI DUP1 PUSH1 0x1F LT PUSH2 0x550 JUMPI PUSH2 0x100 DUP1 DUP4 SLOAD DIV MUL DUP4 MSTORE SWAP2 PUSH1 0x20 ADD SWAP2 PUSH2 0x57B JUMP JUMPDEST DUP3 ADD SWAP2 SWAP1 PUSH1 0x0 MSTORE PUSH1 0x20 PUSH1 0x0 KECCAK256 SWAP1 JUMPDEST DUP2 SLOAD DUP2 MSTORE SWAP1 PUSH1 0x1 ADD SWAP1 PUSH1 0x20 ADD DUP1 DUP4 GT PUSH2 0x55E JUMPI DUP3 SWAP1 SUB PUSH1 0x1F AND DUP3 ADD SWAP2 JUMPDEST POP POP POP POP POP SWAP1 POP SWAP1 JUMP JUMPDEST PUSH1 0x0 DUP1 SLOAD SWAP1 PUSH2 0x100 EXP SWAP1 DIV PUSH20 0xFFFFFFFFFFFFFFFFFFFFFFFFFFFFFFFFFFFFFFFF AND PUSH20 0xFFFFFFFFFFFFFFFFFFFFFFFFFFFFFFFFFFFFFFFF AND CALLER PUSH20 0xFFFFFFFFFFFFFFFFFFFFFFFFFFFFFFFFFFFFFFFF AND EQ PUSH2 0x613 JUMPI PUSH1 0x40 MLOAD PUSH32 0x8C379A000000000000000000000000000000000000000000000000000000000 DUP2 MSTORE PUSH1 0x4 ADD PUSH2 0x60A SWAP1 PUSH2 0xEF7 JUMP JUMPDEST PUSH1 0x40 MLOAD DUP1 SWAP2 SUB SWAP1 REVERT JUMPDEST DUP1 PUSH1 0x1 PUSH1 0x0 DUP5 PUSH20 0xFFFFFFFFFFFFFFFFFFFFFFFFFFFFFFFFFFFFFFFF AND PUSH20 0xFFFFFFFFFFFFFFFFFFFFFFFFFFFFFFFFFFFFFFFF AND DUP2 MSTORE PUSH1 0x20 ADD SWAP1 DUP2 MSTORE PUSH1 0x20 ADD PUSH1 0x0 KECCAK256 PUSH1 0x0 DUP3 DUP3 SLOAD PUSH2 0x662 SWAP2 SWAP1 PUSH2 0xF7A JUMP JUMPDEST SWAP3 POP POP DUP2 SWAP1 SSTORE POP DUP1 PUSH1 0x5 PUSH1 0x0 DUP3 DUP3 SLOAD PUSH2 0x67B SWAP2 SWAP1 PUSH2 0xF7A JUMP JUMPDEST SWAP3 POP POP DUP2 SWAP1 SSTORE POP POP POP JUMP JUMPDEST PUSH1 0x0 PUSH1 0x5 SLOAD SWAP1 POP SWAP1 JUMP JUMPDEST CALLER DUP2 DUP1 PUSH2 0x69C DUP4 PUSH2 0x343 JUMP JUMPDEST LT ISZERO PUSH2 0x6DD JUMPI PUSH1 0x40 MLOAD PUSH32 0x8C379A000000000000000000000000000000000000000000000000000000000 DUP2 MSTORE PUSH1 0x4 ADD PUSH2 0x6D4 SWAP1 PUSH2 0xFFA JUMP JUMPDEST PUSH1 0x40 MLOAD DUP1 SWAP2 SUB SWAP1 REVERT JUMPDEST DUP3 PUSH1 0x1 PUSH1 0x0 CALLER PUSH20 0xFFFFFFFFFFFFFFFFFFFFFFFFFFFFFFFFFFFFFFFF AND PUSH20 0xFFFFFFFFFFFFFFFFFFFFFFFFFFFFFFFFFFFFFFFF AND DUP2 MSTORE PUSH1 0x20 ADD SWAP1 DUP2 MSTORE PUSH1 0x20 ADD PUSH1 0x0 KECCAK256 PUSH1 0x0 DUP3 DUP3 SLOAD PUSH2 0x72C SWAP2 SWAP1 PUSH2 0xF7A JUMP JUMPDEST SWAP3 POP POP DUP2 SWAP1 SSTORE POP DUP3 PUSH1 0x1 PUSH1 0x0 DUP7 PUSH20 0xFFFFFFFFFFFFFFFFFFFFFFFFFFFFFFFFFFFFFFFF AND PUSH20 0xFFFFFFFFFFFFFFFFFFFFFFFFFFFFFFFFFFFFFFFF AND DUP2 MSTORE PUSH1 0x20 ADD SWAP1 DUP2 MSTORE PUSH1 0x20 ADD PUSH1 0x0 KECCAK256 PUSH1 0x0 DUP3 DUP3 SLOAD PUSH2 0x782 SWAP2 SWAP1 PUSH2 0xF46 JUMP JUMPDEST SWAP3 POP POP DUP2 SWAP1 SSTORE POP DUP4 PUSH20 0xFFFFFFFFFFFFFFFFFFFFFFFFFFFFFFFFFFFFFFFF AND CALLER PUSH20 0xFFFFFFFFFFFFFFFFFFFFFFFFFFFFFFFFFFFFFFFF AND PUSH32 0xDDF252AD1BE2C89B69C2B068FC378DAA952BA7F163C4A11628F55A4DF523B3EF DUP6 PUSH1 0x40 MLOAD PUSH2 0x7E6 SWAP2 SWAP1 PUSH2 0xD30 JUMP JUMPDEST PUSH1 0x40 MLOAD DUP1 SWAP2 SUB SWAP1 LOG3 POP POP POP POP JUMP JUMPDEST DUP3 DUP2 DUP1 PUSH2 0x800 DUP4 PUSH2 0x343 JUMP JUMPDEST LT ISZERO PUSH2 0x841 JUMPI PUSH1 0x40 MLOAD PUSH32 0x8C379A000000000000000000000000000000000000000000000000000000000 DUP2 MSTORE PUSH1 0x4 ADD PUSH2 0x838 SWAP1 PUSH2 0xFFA JUMP JUMPDEST PUSH1 0x40 MLOAD DUP1 SWAP2 SUB SWAP1 REVERT JUMPDEST DUP3 PUSH1 0x2 PUSH1 0x0 DUP8 PUSH20 0xFFFFFFFFFFFFFFFFFFFFFFFFFFFFFFFFFFFFFFFF AND PUSH20 0xFFFFFFFFFFFFFFFFFFFFFFFFFFFFFFFFFFFFFFFF AND DUP2 MSTORE PUSH1 0x20 ADD SWAP1 DUP2 MSTORE PUSH1 0x20 ADD PUSH1 0x0 KECCAK256 PUSH1 0x0 DUP7 PUSH20 0xFFFFFFFFFFFFFFFFFFFFFFFFFFFFFFFFFFFFFFFF AND PUSH20 0xFFFFFFFFFFFFFFFFFFFFFFFFFFFFFFFFFFFFFFFF AND DUP2 MSTORE PUSH1 0x20 ADD SWAP1 DUP2 MSTORE PUSH1 0x20 ADD PUSH1 0x0 KECCAK256 SLOAD LT ISZERO PUSH2 0x900 JUMPI PUSH1 0x40 MLOAD PUSH32 0x8C379A000000000000000000000000000000000000000000000000000000000 DUP2 MSTORE PUSH1 0x4 ADD PUSH2 0x8F7 SWAP1 PUSH2 0x1066 JUMP JUMPDEST PUSH1 0x40 MLOAD DUP1 SWAP2 SUB SWAP1 REVERT JUMPDEST DUP3 PUSH1 0x2 PUSH1 0x0 DUP8 PUSH20 0xFFFFFFFFFFFFFFFFFFFFFFFFFFFFFFFFFFFFFFFF AND PUSH20 0xFFFFFFFFFFFFFFFFFFFFFFFFFFFFFFFFFFFFFFFF AND DUP2 MSTORE PUSH1 0x20 ADD SWAP1 DUP2 MSTORE PUSH1 0x20 ADD PUSH1 0x0 KECCAK256 PUSH1 0x0 DUP7 PUSH20 0xFFFFFFFFFFFFFFFFFFFFFFFFFFFFFFFFFFFFFFFF AND PUSH20 0xFFFFFFFFFFFFFFFFFFFFFFFFFFFFFFFFFFFFFFFF AND DUP2 MSTORE PUSH1 0x20 ADD SWAP1 DUP2 MSTORE PUSH1 0x20 ADD PUSH1 0x0 KECCAK256 PUSH1 0x0 DUP3 DUP3 SLOAD PUSH2 0x98C SWAP2 SWAP1 PUSH2 0xF7A JUMP JUMPDEST SWAP3 POP POP DUP2 SWAP1 SSTORE POP DUP3 PUSH1 0x1 PUSH1 0x0 DUP8 PUSH20 0xFFFFFFFFFFFFFFFFFFFFFFFFFFFFFFFFFFFFFFFF AND PUSH20 0xFFFFFFFFFFFFFFFFFFFFFFFFFFFFFFFFFFFFFFFF AND DUP2 MSTORE PUSH1 0x20 ADD SWAP1 DUP2 MSTORE PUSH1 0x20 ADD PUSH1 0x0 KECCAK256 PUSH1 0x0 DUP3 DUP3 SLOAD PUSH2 0x9E2 SWAP2 SWAP1 PUSH2 0xF7A JUMP JUMPDEST SWAP3 POP POP DUP2 SWAP1 SSTORE POP DUP3 PUSH1 0x1 PUSH1 0x0 DUP7 PUSH20 0xFFFFFFFFFFFFFFFFFFFFFFFFFFFFFFFFFFFFFFFF AND PUSH20 0xFFFFFFFFFFFFFFFFFFFFFFFFFFFFFFFFFFFFFFFF AND DUP2 MSTORE PUSH1 0x20 ADD SWAP1 DUP2 MSTORE PUSH1 0x20 ADD PUSH1 0x0 KECCAK256 PUSH1 0x0 DUP3 DUP3 SLOAD PUSH2 0xA38 SWAP2 SWAP1 PUSH2 0xF46 JUMP JUMPDEST SWAP3 POP POP DUP2 SWAP1 SSTORE POP DUP4 PUSH20 0xFFFFFFFFFFFFFFFFFFFFFFFFFFFFFFFFFFFFFFFF AND DUP6 PUSH20 0xFFFFFFFFFFFFFFFFFFFFFFFFFFFFFFFFFFFFFFFF AND PUSH32 0x6E11FB1B7F119E3F2FA29896EF5FDF8B8A2D0D4DF6FE90BA8668E7D8B2FFA25E DUP6 PUSH1 0x40 MLOAD PUSH2 0xA9C SWAP2 SWAP1 PUSH2 0xD30 JUMP JUMPDEST PUSH1 0x40 MLOAD DUP1 SWAP2 SUB SWAP1 LOG3 POP POP POP POP POP JUMP JUMPDEST DUP1 PUSH1 0x2 PUSH1 0x0 DUP6 PUSH20 0xFFFFFFFFFFFFFFFFFFFFFFFFFFFFFFFFFFFFFFFF AND PUSH20 0xFFFFFFFFFFFFFFFFFFFFFFFFFFFFFFFFFFFFFFFF AND DUP2 MSTORE PUSH1 0x20 ADD SWAP1 DUP2 MSTORE PUSH1 0x20 ADD PUSH1 0x0 KECCAK256 PUSH1 0x0 DUP5 PUSH20 0xFFFFFFFFFFFFFFFFFFFFFFFFFFFFFFFFFFFFFFFF AND PUSH20 0xFFFFFFFFFFFFFFFFFFFFFFFFFFFFFFFFFFFFFFFF AND DUP2 MSTORE PUSH1 0x20 ADD SWAP1 DUP2 MSTORE PUSH1 0x20 ADD PUSH1 0x0 KECCAK256 DUP2 SWAP1 SSTORE POP DUP2 PUSH20 0xFFFFFFFFFFFFFFFFFFFFFFFFFFFFFFFFFFFFFFFF AND DUP4 PUSH20 0xFFFFFFFFFFFFFFFFFFFFFFFFFFFFFFFFFFFFFFFF AND PUSH32 0x6E11FB1B7F119E3F2FA29896EF5FDF8B8A2D0D4DF6FE90BA8668E7D8B2FFA25E DUP4 PUSH1 0x40 MLOAD PUSH2 0xB89 SWAP2 SWAP1 PUSH2 0xD30 JUMP JUMPDEST PUSH1 0x40 MLOAD DUP1 SWAP2 SUB SWAP1 LOG3 POP POP POP JUMP JUMPDEST PUSH1 0x0 DUP2 MLOAD SWAP1 POP SWAP2 SWAP1 POP JUMP JUMPDEST PUSH1 0x0 DUP3 DUP3 MSTORE PUSH1 0x20 DUP3 ADD SWAP1 POP SWAP3 SWAP2 POP POP JUMP JUMPDEST PUSH1 0x0 JUMPDEST DUP4 DUP2 LT ISZERO PUSH2 0xBD0 JUMPI DUP1 DUP3 ADD MLOAD DUP2 DUP5 ADD MSTORE PUSH1 0x20 DUP2 ADD SWAP1 POP PUSH2 0xBB5 JUMP JUMPDEST PUSH1 0x0 DUP5 DUP5 ADD MSTORE POP POP POP POP JUMP JUMPDEST PUSH1 0x0 PUSH1 0x1F NOT PUSH1 0x1F DUP4 ADD AND SWAP1 POP SWAP2 SWAP1 POP JUMP JUMPDEST PUSH1 0x0 PUSH2 0xBF8 DUP3 PUSH2 0xB96 JUMP JUMPDEST PUSH2 0xC02 DUP2 DUP6 PUSH2 0xBA1 JUMP JUMPDEST SWAP4 POP PUSH2 0xC12 DUP2 DUP6 PUSH1 0x20 DUP7 ADD PUSH2 0xBB2 JUMP JUMPDEST PUSH2 0xC1B DUP2 PUSH2 0xBDC JUMP JUMPDEST DUP5 ADD SWAP2 POP POP SWAP3 SWAP2 POP POP JUMP JUMPDEST PUSH1 0x0 PUSH1 0x20 DUP3 ADD SWAP1 POP DUP2 DUP2 SUB PUSH1 0x0 DUP4 ADD MSTORE PUSH2 0xC40 DUP2 DUP5 PUSH2 0xBED JUMP JUMPDEST SWAP1 POP SWAP3 SWAP2 POP POP JUMP JUMPDEST PUSH1 0x0 DUP1 REVERT JUMPDEST PUSH1 0x0 PUSH20 0xFFFFFFFFFFFFFFFFFFFFFFFFFFFFFFFFFFFFFFFF DUP3 AND SWAP1 POP SWAP2 SWAP1 POP JUMP JUMPDEST PUSH1 0x0 PUSH2 0xC78 DUP3 PUSH2 0xC4D JUMP JUMPDEST SWAP1 POP SWAP2 SWAP1 POP JUMP JUMPDEST PUSH2 0xC88 DUP2 PUSH2 0xC6D JUMP JUMPDEST DUP2 EQ PUSH2 0xC93 JUMPI PUSH1 0x0 DUP1 REVERT JUMPDEST POP JUMP JUMPDEST PUSH1 0x0 DUP2 CALLDATALOAD SWAP1 POP PUSH2 0xCA5 DUP2 PUSH2 0xC7F JUMP JUMPDEST SWAP3 SWAP2 POP POP JUMP JUMPDEST PUSH1 0x0 DUP2 SWAP1 POP SWAP2 SWAP1 POP JUMP JUMPDEST PUSH2 0xCBE DUP2 PUSH2 0xCAB JUMP JUMPDEST DUP2 EQ PUSH2 0xCC9 JUMPI PUSH1 0x0 DUP1 REVERT JUMPDEST POP JUMP JUMPDEST PUSH1 0x0 DUP2 CALLDATALOAD SWAP1 POP PUSH2 0xCDB DUP2 PUSH2 0xCB5 JUMP JUMPDEST SWAP3 SWAP2 POP POP JUMP JUMPDEST PUSH1 0x0 DUP1 PUSH1 0x40 DUP4 DUP6 SUB SLT ISZERO PUSH2 0xCF8 JUMPI PUSH2 0xCF7 PUSH2 0xC48 JUMP JUMPDEST JUMPDEST PUSH1 0x0 PUSH2 0xD06 DUP6 DUP3 DUP7 ADD PUSH2 0xC96 JUMP JUMPDEST SWAP3 POP POP PUSH1 0x20 PUSH2 0xD17 DUP6 DUP3 DUP7 ADD PUSH2 0xCCC JUMP JUMPDEST SWAP2 POP POP SWAP3 POP SWAP3 SWAP1 POP JUMP JUMPDEST PUSH2 0xD2A DUP2 PUSH2 0xCAB JUMP JUMPDEST DUP3 MSTORE POP POP JUMP JUMPDEST PUSH1 0x0 PUSH1 0x20 DUP3 ADD SWAP1 POP PUSH2 0xD45 PUSH1 0x0 DUP4 ADD DUP5 PUSH2 0xD21 JUMP JUMPDEST SWAP3 SWAP2 POP POP JUMP JUMPDEST PUSH1 0x0 DUP1 PUSH1 0x40 DUP4 DUP6 SUB SLT ISZERO PUSH2 0xD62 JUMPI PUSH2 0xD61 PUSH2 0xC48 JUMP JUMPDEST JUMPDEST PUSH1 0x0 PUSH2 0xD70 DUP6 DUP3 DUP7 ADD PUSH2 0xC96 JUMP JUMPDEST SWAP3 POP POP PUSH1 0x20 PUSH2 0xD81 DUP6 DUP3 DUP7 ADD PUSH2 0xC96 JUMP JUMPDEST SWAP2 POP POP SWAP3 POP SWAP3 SWAP1 POP JUMP JUMPDEST PUSH1 0x0 PUSH1 0x20 DUP3 DUP5 SUB SLT ISZERO PUSH2 0xDA1 JUMPI PUSH2 0xDA0 PUSH2 0xC48 JUMP JUMPDEST JUMPDEST PUSH1 0x0 PUSH2 0xDAF DUP5 DUP3 DUP6 ADD PUSH2 0xC96 JUMP JUMPDEST SWAP2 POP POP SWAP3 SWAP2 POP POP JUMP JUMPDEST PUSH1 0x0 DUP1 PUSH1 0x40 DUP4 DUP6 SUB SLT ISZERO PUSH2 0xDCF JUMPI PUSH2 0xDCE PUSH2 0xC48 JUMP JUMPDEST JUMPDEST PUSH1 0x0 PUSH2 0xDDD DUP6 DUP3 DUP7 ADD PUSH2 0xCCC JUMP JUMPDEST SWAP3 POP POP PUSH1 0x20 PUSH2 0xDEE DUP6 DUP3 DUP7 ADD PUSH2 0xC96 JUMP JUMPDEST SWAP2 POP POP SWAP3 POP SWAP3 SWAP1 POP JUMP JUMPDEST PUSH1 0x0 DUP1 PUSH1 0x0 PUSH1 0x60 DUP5 DUP7 SUB SLT ISZERO PUSH2 0xE11 JUMPI PUSH2 0xE10 PUSH2 0xC48 JUMP JUMPDEST JUMPDEST PUSH1 0x0 PUSH2 0xE1F DUP7 DUP3 DUP8 ADD PUSH2 0xC96 JUMP JUMPDEST SWAP4 POP POP PUSH1 0x20 PUSH2 0xE30 DUP7 DUP3 DUP8 ADD PUSH2 0xC96 JUMP JUMPDEST SWAP3 POP POP PUSH1 0x40 PUSH2 0xE41 DUP7 DUP3 DUP8 ADD PUSH2 0xCCC JUMP JUMPDEST SWAP2 POP POP SWAP3 POP SWAP3 POP SWAP3 JUMP JUMPDEST PUSH32 0x4E487B7100000000000000000000000000000000000000000000000000000000 PUSH1 0x0 MSTORE PUSH1 0x22 PUSH1 0x4 MSTORE PUSH1 0x24 PUSH1 0x0 REVERT JUMPDEST PUSH1 0x0 PUSH1 0x2 DUP3 DIV SWAP1 POP PUSH1 0x1 DUP3 AND DUP1 PUSH2 0xE92 JUMPI PUSH1 0x7F DUP3 AND SWAP2 POP JUMPDEST PUSH1 0x20 DUP3 LT DUP2 SUB PUSH2 0xEA5 JUMPI PUSH2 0xEA4 PUSH2 0xE4B JUMP JUMPDEST JUMPDEST POP SWAP2 SWAP1 POP JUMP JUMPDEST PUSH32 0x796F75206E6F74206F776E657200000000000000000000000000000000000000 PUSH1 0x0 DUP3 ADD MSTORE POP JUMP JUMPDEST PUSH1 0x0 PUSH2 0xEE1 PUSH1 0xD DUP4 PUSH2 0xBA1 JUMP JUMPDEST SWAP2 POP PUSH2 0xEEC DUP3 PUSH2 0xEAB JUMP JUMPDEST PUSH1 0x20 DUP3 ADD SWAP1 POP SWAP2 SWAP1 POP JUMP JUMPDEST PUSH1 0x0 PUSH1 0x20 DUP3 ADD SWAP1 POP DUP2 DUP2 SUB PUSH1 0x0 DUP4 ADD MSTORE PUSH2 0xF10 DUP2 PUSH2 0xED4 JUMP JUMPDEST SWAP1 POP SWAP2 SWAP1 POP JUMP JUMPDEST PUSH32 0x4E487B7100000000000000000000000000000000000000000000000000000000 PUSH1 0x0 MSTORE PUSH1 0x11 PUSH1 0x4 MSTORE PUSH1 0x24 PUSH1 0x0 REVERT JUMPDEST PUSH1 0x0 PUSH2 0xF51 DUP3 PUSH2 0xCAB JUMP JUMPDEST SWAP2 POP PUSH2 0xF5C DUP4 PUSH2 0xCAB JUMP JUMPDEST SWAP3 POP DUP3 DUP3 ADD SWAP1 POP DUP1 DUP3 GT ISZERO PUSH2 0xF74 JUMPI PUSH2 0xF73 PUSH2 0xF17 JUMP JUMPDEST JUMPDEST SWAP3 SWAP2 POP POP JUMP JUMPDEST PUSH1 0x0 PUSH2 0xF85 DUP3 PUSH2 0xCAB JUMP JUMPDEST SWAP2 POP PUSH2 0xF90 DUP4 PUSH2 0xCAB JUMP JUMPDEST SWAP3 POP DUP3 DUP3 SUB SWAP1 POP DUP2 DUP2 GT ISZERO PUSH2 0xFA8 JUMPI PUSH2 0xFA7 PUSH2 0xF17 JUMP JUMPDEST JUMPDEST SWAP3 SWAP2 POP POP JUMP JUMPDEST PUSH32 0x6E6F7420656E6F7567687420746F6B656E000000000000000000000000000000 PUSH1 0x0 DUP3 ADD MSTORE POP JUMP JUMPDEST PUSH1 0x0 PUSH2 0xFE4 PUSH1 0x11 DUP4 PUSH2 0xBA1 JUMP JUMPDEST SWAP2 POP PUSH2 0xFEF DUP3 PUSH2 0xFAE JUMP JUMPDEST PUSH1 0x20 DUP3 ADD SWAP1 POP SWAP2 SWAP1 POP JUMP JUMPDEST PUSH1 0x0 PUSH1 0x20 DUP3 ADD SWAP1 POP DUP2 DUP2 SUB PUSH1 0x0 DUP4 ADD MSTORE PUSH2 0x1013 DUP2 PUSH2 0xFD7 JUMP JUMPDEST SWAP1 POP SWAP2 SWAP1 POP JUMP JUMPDEST PUSH32 0x636865636B20616C6C6F77616E63657321000000000000000000000000000000 PUSH1 0x0 DUP3 ADD MSTORE POP JUMP JUMPDEST PUSH1 0x0 PUSH2 0x1050 PUSH1 0x11 DUP4 PUSH2 0xBA1 JUMP JUMPDEST SWAP2 POP PUSH2 0x105B DUP3 PUSH2 0x101A JUMP JUMPDEST PUSH1 0x20 DUP3 ADD SWAP1 POP SWAP2 SWAP1 POP JUMP JUMPDEST PUSH1 0x0 PUSH1 0x20 DUP3 ADD SWAP1 POP DUP2 DUP2 SUB PUSH1 0x0 DUP4 ADD MSTORE PUSH2 0x107F DUP2 PUSH2 0x1043 JUMP JUMPDEST SWAP1 POP SWAP2 SWAP1 POP JUMP INVALID LOG2 PUSH5 0x6970667358 0x22 SLT KECCAK256 OR 0x2A 0xD9 DUP9 0xC4 0xF8 BASEFEE MSTORE CALLCODE 0xAF CALLDATALOAD 0xA5 CALLDATALOAD POP 0xD2 CODESIZE 0xA6 0x5F DUP7 SWAP4 DUP7 0x29 PUSH30 0xAB558A804B1B435D4164736F6C6343000812003300000000000000000000 "},"methodIdentifiers":{"allouns(address,address)":"4164a92c","approve(address,uint256)":"095ea7b3","balanceOf(address)":"70a08231","burn(address,uint256)":"9dc29fac","desimals()":"30938728","mint(uint256,address)":"94bf804d","name()":"06fdde03","symbol()":"95d89b41","totalSuply()":"a2a96799","transfFrom(address,address,uint256)":"afa59236","transfer(address,uint256)":"a9059cbb"}}}}}