{
  "_format": "hh-sol-artifact-1",
  "contractName": "ERC",
  "sourceName": "contracts/ERC.sol",
  "abi": [
    {
      "inputs": [
        {
          "internalType": "string",
          "name": "name_",
          "type": "string"
        },
        {
          "internalType": "string",
          "name": "symbol_",
          "type": "string"
        },
        {
          "internalType": "uint256",
          "name": "initialSuply",
          "type": "uint256"
        },
        {
          "internalType": "address",
          "name": "shop",
          "type": "address"
        }
      ],
      "stateMutability": "nonpayable",
      "type": "constructor"
    },
    {
      "anonymous": false,
      "inputs": [
        {
          "indexed": true,
          "internalType": "address",
          "name": "owner",
          "type": "address"
        },
        {
          "indexed": true,
          "internalType": "address",
          "name": "to",
          "type": "address"
        },
        {
          "indexed": false,
          "internalType": "uint256",
          "name": "amount",
          "type": "uint256"
        }
      ],
      "name": "Approve",
      "type": "event"
    },
    {
      "anonymous": false,
      "inputs": [
        {
          "indexed": true,
          "internalType": "address",
          "name": "from",
          "type": "address"
        },
        {
          "indexed": true,
          "internalType": "address",
          "name": "to",
          "type": "address"
        },
        {
          "indexed": false,
          "internalType": "uint256",
          "name": "amount",
          "type": "uint256"
        }
      ],
      "name": "Transfer",
      "type": "event"
    },
    {
      "inputs": [
        {
          "internalType": "address",
          "name": "_owner",
          "type": "address"
        },
        {
          "internalType": "address",
          "name": "spender",
          "type": "address"
        }
      ],
      "name": "allouns",
      "outputs": [
        {
          "internalType": "uint256",
          "name": "",
          "type": "uint256"
        }
      ],
      "stateMutability": "view",
      "type": "function"
    },
    {
      "inputs": [
        {
          "internalType": "address",
          "name": "spender",
          "type": "address"
        },
        {
          "internalType": "uint256",
          "name": "amount",
          "type": "uint256"
        }
      ],
      "name": "approve",
      "outputs": [],
      "stateMutability": "nonpayable",
      "type": "function"
    },
    {
      "inputs": [
        {
          "internalType": "address",
          "name": "acount",
          "type": "address"
        }
      ],
      "name": "balanceOf",
      "outputs": [
        {
          "internalType": "uint256",
          "name": "",
          "type": "uint256"
        }
      ],
      "stateMutability": "view",
      "type": "function"
    },
    {
      "inputs": [
        {
          "internalType": "address",
          "name": "_from",
          "type": "address"
        },
        {
          "internalType": "uint256",
          "name": "amount",
          "type": "uint256"
        }
      ],
      "name": "burn",
      "outputs": [],
      "stateMutability": "nonpayable",
      "type": "function"
    },
    {
      "inputs": [],
      "name": "desimals",
      "outputs": [
        {
          "internalType": "uint256",
          "name": "",
          "type": "uint256"
        }
      ],
      "stateMutability": "pure",
      "type": "function"
    },
    {
      "inputs": [
        {
          "internalType": "uint256",
          "name": "amount",
          "type": "uint256"
        },
        {
          "internalType": "address",
          "name": "shop",
          "type": "address"
        }
      ],
      "name": "mint",
      "outputs": [],
      "stateMutability": "nonpayable",
      "type": "function"
    },
    {
      "inputs": [],
      "name": "name",
      "outputs": [
        {
          "internalType": "string",
          "name": "",
          "type": "string"
        }
      ],
      "stateMutability": "view",
      "type": "function"
    },
    {
      "inputs": [],
      "name": "symbol",
      "outputs": [
        {
          "internalType": "string",
          "name": "",
          "type": "string"
        }
      ],
      "stateMutability": "view",
      "type": "function"
    },
    {
      "inputs": [],
      "name": "totalSuply",
      "outputs": [
        {
          "internalType": "uint256",
          "name": "",
          "type": "uint256"
        }
      ],
      "stateMutability": "view",
      "type": "function"
    },
    {
      "inputs": [
        {
          "internalType": "address",
          "name": "sender",
          "type": "address"
        },
        {
          "internalType": "address",
          "name": "resip",
          "type": "address"
        },
        {
          "internalType": "uint256",
          "name": "amount",
          "type": "uint256"
        }
      ],
      "name": "transfFrom",
      "outputs": [],
      "stateMutability": "nonpayable",
      "type": "function"
    },
    {
      "inputs": [
        {
          "internalType": "address",
          "name": "to",
          "type": "address"
        },
        {
          "internalType": "uint256",
          "name": "amount",
          "type": "uint256"
        }
      ],
      "name": "transfer",
      "outputs": [],
      "stateMutability": "nonpayable",
      "type": "function"
    }
  ],
  "bytecode": "0x60806040523480156200001157600080fd5b5060405162001a1938038062001a1983398181016040528101906200003791906200045a565b336000806101000a81548173ffffffffffffffffffffffffffffffffffffffff021916908373ffffffffffffffffffffffffffffffffffffffff16021790555083600390816200008891906200074b565b5082600490816200009a91906200074b565b50620000ad8282620000b760201b60201c565b505050506200094d565b60008054906101000a900473ffffffffffffffffffffffffffffffffffffffff1673ffffffffffffffffffffffffffffffffffffffff163373ffffffffffffffffffffffffffffffffffffffff161462000148576040517f08c379a00000000000000000000000000000000000000000000000000000000081526004016200013f9062000893565b60405180910390fd5b81600160008373ffffffffffffffffffffffffffffffffffffffff1673ffffffffffffffffffffffffffffffffffffffff1681526020019081526020016000206000828254620001999190620008e4565b925050819055508160056000828254620001b49190620008e4565b925050819055508073ffffffffffffffffffffffffffffffffffffffff16600073ffffffffffffffffffffffffffffffffffffffff167fddf252ad1be2c89b69c2b068fc378daa952ba7f163c4a11628f55a4df523b3ef846040516200021b919062000930565b60405180910390a35050565b6000604051905090565b600080fd5b600080fd5b600080fd5b600080fd5b6000601f19601f8301169050919050565b7f4e487b7100000000000000000000000000000000000000000000000000000000600052604160045260246000fd5b620002908262000245565b810181811067ffffffffffffffff82111715620002b257620002b162000256565b5b80604052505050565b6000620002c762000227565b9050620002d5828262000285565b919050565b600067ffffffffffffffff821115620002f857620002f762000256565b5b620003038262000245565b9050602081019050919050565b60005b838110156200033057808201518184015260208101905062000313565b60008484015250505050565b6000620003536200034d84620002da565b620002bb565b90508281526020810184848401111562000372576200037162000240565b5b6200037f84828562000310565b509392505050565b600082601f8301126200039f576200039e6200023b565b5b8151620003b18482602086016200033c565b91505092915050565b6000819050919050565b620003cf81620003ba565b8114620003db57600080fd5b50565b600081519050620003ef81620003c4565b92915050565b600073ffffffffffffffffffffffffffffffffffffffff82169050919050565b60006200042282620003f5565b9050919050565b620004348162000415565b81146200044057600080fd5b50565b600081519050620004548162000429565b92915050565b6000806000806080858703121562000477576200047662000231565b5b600085015167ffffffffffffffff81111562000498576200049762000236565b5b620004a68782880162000387565b945050602085015167ffffffffffffffff811115620004ca57620004c962000236565b5b620004d88782880162000387565b9350506040620004eb87828801620003de565b9250506060620004fe8782880162000443565b91505092959194509250565b600081519050919050565b7f4e487b7100000000000000000000000000000000000000000000000000000000600052602260045260246000fd5b600060028204905060018216806200055d57607f821691505b60208210810362000573576200057262000515565b5b50919050565b60008190508160005260206000209050919050565b60006020601f8301049050919050565b600082821b905092915050565b600060088302620005dd7fffffffffffffffffffffffffffffffffffffffffffffffffffffffffffffffff826200059e565b620005e986836200059e565b95508019841693508086168417925050509392505050565b6000819050919050565b60006200062c620006266200062084620003ba565b62000601565b620003ba565b9050919050565b6000819050919050565b62000648836200060b565b62000660620006578262000633565b848454620005ab565b825550505050565b600090565b6200067762000668565b620006848184846200063d565b505050565b5b81811015620006ac57620006a06000826200066d565b6001810190506200068a565b5050565b601f821115620006fb57620006c58162000579565b620006d0846200058e565b81016020851015620006e0578190505b620006f8620006ef856200058e565b83018262000689565b50505b505050565b600082821c905092915050565b6000620007206000198460080262000700565b1980831691505092915050565b60006200073b83836200070d565b9150826002028217905092915050565b62000756826200050a565b67ffffffffffffffff81111562000772576200077162000256565b5b6200077e825462000544565b6200078b828285620006b0565b600060209050601f831160018114620007c35760008415620007ae578287015190505b620007ba85826200072d565b8655506200082a565b601f198416620007d38662000579565b60005b82811015620007fd57848901518255600182019150602085019450602081019050620007d6565b868310156200081d578489015162000819601f8916826200070d565b8355505b6001600288020188555050505b505050505050565b600082825260208201905092915050565b7f796f75206e6f74206f776e657200000000000000000000000000000000000000600082015250565b60006200087b600d8362000832565b9150620008888262000843565b602082019050919050565b60006020820190508181036000830152620008ae816200086c565b9050919050565b7f4e487b7100000000000000000000000000000000000000000000000000000000600052601160045260246000fd5b6000620008f182620003ba565b9150620008fe83620003ba565b9250828201905080821115620009195762000918620008b5565b5b92915050565b6200092a81620003ba565b82525050565b60006020820190506200094760008301846200091f565b92915050565b6110bc806200095d6000396000f3fe608060405234801561001057600080fd5b50600436106100a95760003560e01c806394bf804d1161007157806394bf804d1461016657806395d89b41146101825780639dc29fac146101a0578063a2a96799146101bc578063a9059cbb146101da578063afa59236146101f6576100a9565b806306fdde03146100ae578063095ea7b3146100cc57806330938728146100e85780634164a92c1461010657806370a0823114610136575b600080fd5b6100b6610212565b6040516100c39190610c26565b60405180910390f35b6100e660048036038101906100e19190610ce1565b6102a4565b005b6100f06102b3565b6040516100fd9190610d30565b60405180910390f35b610120600480360381019061011b9190610d4b565b6102bc565b60405161012d9190610d30565b60405180910390f35b610150600480360381019061014b9190610d8b565b610343565b60405161015d9190610d30565b60405180910390f35b610180600480360381019061017b9190610db8565b61038c565b005b61018a6104f3565b6040516101979190610c26565b60405180910390f35b6101ba60048036038101906101b59190610ce1565b610585565b005b6101c4610686565b6040516101d19190610d30565b60405180910390f35b6101f460048036038101906101ef9190610ce1565b610690565b005b610210600480360381019061020b9190610df8565b6107f4565b005b60606003805461022190610e7a565b80601f016020809104026020016040519081016040528092919081815260200182805461024d90610e7a565b801561029a5780601f1061026f5761010080835404028352916020019161029a565b820191906000526020600020905b81548152906001019060200180831161027d57829003601f168201915b5050505050905090565b6102af338383610aab565b5050565b60006012905090565b6000600260008473ffffffffffffffffffffffffffffffffffffffff1673ffffffffffffffffffffffffffffffffffffffff16815260200190815260200160002060008373ffffffffffffffffffffffffffffffffffffffff1673ffffffffffffffffffffffffffffffffffffffff16815260200190815260200160002054905092915050565b6000600160008373ffffffffffffffffffffffffffffffffffffffff1673ffffffffffffffffffffffffffffffffffffffff168152602001908152602001600020549050919050565b60008054906101000a900473ffffffffffffffffffffffffffffffffffffffff1673ffffffffffffffffffffffffffffffffffffffff163373ffffffffffffffffffffffffffffffffffffffff161461041a576040517f08c379a000000000000000000000000000000000000000000000000000000000815260040161041190610ef7565b60405180910390fd5b81600160008373ffffffffffffffffffffffffffffffffffffffff1673ffffffffffffffffffffffffffffffffffffffff16815260200190815260200160002060008282546104699190610f46565b9250508190555081600560008282546104829190610f46565b925050819055508073ffffffffffffffffffffffffffffffffffffffff16600073ffffffffffffffffffffffffffffffffffffffff167fddf252ad1be2c89b69c2b068fc378daa952ba7f163c4a11628f55a4df523b3ef846040516104e79190610d30565b60405180910390a35050565b60606004805461050290610e7a565b80601f016020809104026020016040519081016040528092919081815260200182805461052e90610e7a565b801561057b5780601f106105505761010080835404028352916020019161057b565b820191906000526020600020905b81548152906001019060200180831161055e57829003601f168201915b5050505050905090565b60008054906101000a900473ffffffffffffffffffffffffffffffffffffffff1673ffffffffffffffffffffffffffffffffffffffff163373ffffffffffffffffffffffffffffffffffffffff1614610613576040517f08c379a000000000000000000000000000000000000000000000000000000000815260040161060a90610ef7565b60405180910390fd5b80600160008473ffffffffffffffffffffffffffffffffffffffff1673ffffffffffffffffffffffffffffffffffffffff16815260200190815260200160002060008282546106629190610f7a565b92505081905550806005600082825461067b9190610f7a565b925050819055505050565b6000600554905090565b33818061069c83610343565b10156106dd576040517f08c379a00000000000000000000000000000000000000000000000000000000081526004016106d490610ffa565b60405180910390fd5b82600160003373ffffffffffffffffffffffffffffffffffffffff1673ffffffffffffffffffffffffffffffffffffffff168152602001908152602001600020600082825461072c9190610f7a565b9250508190555082600160008673ffffffffffffffffffffffffffffffffffffffff1673ffffffffffffffffffffffffffffffffffffffff16815260200190815260200160002060008282546107829190610f46565b925050819055508373ffffffffffffffffffffffffffffffffffffffff163373ffffffffffffffffffffffffffffffffffffffff167fddf252ad1be2c89b69c2b068fc378daa952ba7f163c4a11628f55a4df523b3ef856040516107e69190610d30565b60405180910390a350505050565b82818061080083610343565b1015610841576040517f08c379a000000000000000000000000000000000000000000000000000000000815260040161083890610ffa565b60405180910390fd5b82600260008773ffffffffffffffffffffffffffffffffffffffff1673ffffffffffffffffffffffffffffffffffffffff16815260200190815260200160002060008673ffffffffffffffffffffffffffffffffffffffff1673ffffffffffffffffffffffffffffffffffffffff168152602001908152602001600020541015610900576040517f08c379a00000000000000000000000000000000000000000000000000000000081526004016108f790611066565b60405180910390fd5b82600260008773ffffffffffffffffffffffffffffffffffffffff1673ffffffffffffffffffffffffffffffffffffffff16815260200190815260200160002060008673ffffffffffffffffffffffffffffffffffffffff1673ffffffffffffffffffffffffffffffffffffffff168152602001908152602001600020600082825461098c9190610f7a565b9250508190555082600160008773ffffffffffffffffffffffffffffffffffffffff1673ffffffffffffffffffffffffffffffffffffffff16815260200190815260200160002060008282546109e29190610f7a565b9250508190555082600160008673ffffffffffffffffffffffffffffffffffffffff1673ffffffffffffffffffffffffffffffffffffffff1681526020019081526020016000206000828254610a389190610f46565b925050819055508373ffffffffffffffffffffffffffffffffffffffff168573ffffffffffffffffffffffffffffffffffffffff167f6e11fb1b7f119e3f2fa29896ef5fdf8b8a2d0d4df6fe90ba8668e7d8b2ffa25e85604051610a9c9190610d30565b60405180910390a35050505050565b80600260008573ffffffffffffffffffffffffffffffffffffffff1673ffffffffffffffffffffffffffffffffffffffff16815260200190815260200160002060008473ffffffffffffffffffffffffffffffffffffffff1673ffffffffffffffffffffffffffffffffffffffff168152602001908152602001600020819055508173ffffffffffffffffffffffffffffffffffffffff168373ffffffffffffffffffffffffffffffffffffffff167f6e11fb1b7f119e3f2fa29896ef5fdf8b8a2d0d4df6fe90ba8668e7d8b2ffa25e83604051610b899190610d30565b60405180910390a3505050565b600081519050919050565b600082825260208201905092915050565b60005b83811015610bd0578082015181840152602081019050610bb5565b60008484015250505050565b6000601f19601f8301169050919050565b6000610bf882610b96565b610c028185610ba1565b9350610c12818560208601610bb2565b610c1b81610bdc565b840191505092915050565b60006020820190508181036000830152610c408184610bed565b905092915050565b600080fd5b600073ffffffffffffffffffffffffffffffffffffffff82169050919050565b6000610c7882610c4d565b9050919050565b610c8881610c6d565b8114610c9357600080fd5b50565b600081359050610ca581610c7f565b92915050565b6000819050919050565b610cbe81610cab565b8114610cc957600080fd5b50565b600081359050610cdb81610cb5565b92915050565b60008060408385031215610cf857610cf7610c48565b5b6000610d0685828601610c96565b9250506020610d1785828601610ccc565b9150509250929050565b610d2a81610cab565b82525050565b6000602082019050610d456000830184610d21565b92915050565b60008060408385031215610d6257610d61610c48565b5b6000610d7085828601610c96565b9250506020610d8185828601610c96565b9150509250929050565b600060208284031215610da157610da0610c48565b5b6000610daf84828501610c96565b91505092915050565b60008060408385031215610dcf57610dce610c48565b5b6000610ddd85828601610ccc565b9250506020610dee85828601610c96565b9150509250929050565b600080600060608486031215610e1157610e10610c48565b5b6000610e1f86828701610c96565b9350506020610e3086828701610c96565b9250506040610e4186828701610ccc565b9150509250925092565b7f4e487b7100000000000000000000000000000000000000000000000000000000600052602260045260246000fd5b60006002820490506001821680610e9257607f821691505b602082108103610ea557610ea4610e4b565b5b50919050565b7f796f75206e6f74206f776e657200000000000000000000000000000000000000600082015250565b6000610ee1600d83610ba1565b9150610eec82610eab565b602082019050919050565b60006020820190508181036000830152610f1081610ed4565b9050919050565b7f4e487b7100000000000000000000000000000000000000000000000000000000600052601160045260246000fd5b6000610f5182610cab565b9150610f5c83610cab565b9250828201905080821115610f7457610f73610f17565b5b92915050565b6000610f8582610cab565b9150610f9083610cab565b9250828203905081811115610fa857610fa7610f17565b5b92915050565b7f6e6f7420656e6f7567687420746f6b656e000000000000000000000000000000600082015250565b6000610fe4601183610ba1565b9150610fef82610fae565b602082019050919050565b6000602082019050818103600083015261101381610fd7565b9050919050565b7f636865636b20616c6c6f77616e63657321000000000000000000000000000000600082015250565b6000611050601183610ba1565b915061105b8261101a565b602082019050919050565b6000602082019050818103600083015261107f81611043565b905091905056fea2646970667358221220172ad988c4f84852f2af35a53550d238a65f869386297dab558a804b1b435d4164736f6c63430008120033",
  "linkReferences": {},
  "deployedLinkReferences": {}
}